:100000000C9463000C948B000C948B000C948B006C
:100010000C948B000C948B000C948B000C948B0034
:100020000C948B000C948B000C948B000C948B0024
:100030000C948B000C948B000C948B000C948B0014
:100040000C94A0030C948B000C94D2060C9404071F
:100050000C948B000C948B000C948B000C948B00F4
:100060000C948B000C948B0000000008000201002F
:100070000003040700000000000000000102040863
:100080001020408001020408102001020408102002
:10009000040404040404040402020202020203032E
:1000A00003030303000000002300260029000000D2
:1000B0000000250028002B0000000000240027007D
:1000C0002A000701340711241FBECFEFD8E0DEBF9E
:1000D000CDBF11E0A0E0B1E0E0E3F8E102C005909F
:1000E0000D92A833B107D9F721E0A8E3B1E001C030
:1000F0001D92AC3EB207E1F710E0C6ECD0E004C0C0
:100100002297FE010E949E09C23CD107C9F70E94B6
:100110005E090C94160C0C94000026E040E052ECB2
:1001200061E070E08BE491E00E94700661E08091F4
:100130000C010E94B60461E080910A010E94B6049D
:1001400061E0809108010E94B60488E391E00C947C
:100150000D0161E080910C010E94EF0460E080914C
:100160000A010E94EF0460E0809108010C94EF0402
:10017000CF93DF93CDB7DEB760970FB6F894DEBFAD
:100180000FBECDBF62E088E391E00E943203BC0164
:10019000CE0107960E94DF0821E030E040E050E009
:1001A000BE01695F7F4FCE0101960E940D09CE010D
:1001B00001960E94520920910601309107016217B1
:1001C000730744F06D877E878F87988B0E94A90004
:1001D0007E856D854AE050E08BE491E00E945908ED
:1001E00060E67AEE80E090E00E940D04CE01019678
:1001F0000E947108CE0107960E94710860960FB6A2
:10020000F894DEBF0FBECDBFDF91CF91089543E1DB
:1002100062E188E391E00C944201FC01818182312A
:10022000F1F480818331D9F481E0818761E082E15A
:100230000E94EF0461E083E10E94EF048091B90025
:100240008E7F8093B9008091B9008D7F8093B90033
:100250008CE08093B80085E08093BC0008951186FF
:1002600061E080810C94B604FC018EED97E09683EA
:10027000858381E08483838310821182128283E0EC
:1002800087830895FC016183408308950F931F9332
:10029000CF93DF931F92CDB7DEB78C01262F61E09D
:1002A000FC01818129830E94B60461E0F80181810B
:1002B0000E94EF0461E0F80180810E94EF0460E099
:1002C000F80181810E94EF0460E0F80180810E94C2
:1002D000EF04298141E0F801608181810F90DF9175
:1002E000CF911F910F910C944E05CF93DF93EC01AA
:1002F00061E089810E94B60460E089810E94EF0478
:1003000061E088810E94EF0461E089810E94EF042E
:1003100060E08981DF91CF910C94B604CF93DF9395
:10032000EC0161E089810E94B60460E088810E944E
:10033000EF0461E089810E94EF0461E088810E94FE
:10034000EF0460E088810E94EF0460E08981DF9122
:10035000CF910C94B604CF93DF93EC0161E08981D7
:100360000E94B60460E088810E94EF0460E0898109
:100370000E94EF0461E088810E94EF0460E08881C0
:100380000E94EF0460E08981DF91CF910C94B60464
:10039000CF93DF93EC0160E089810E94B60461E0B5
:1003A00088810E94EF0489810E9425050197D9F375
:1003B00060E08881DF91CF910C94EF04FF920F935E
:1003C0001F93CF93DF93EC0160E089810E94B60414
:1003D00007E010E0F12C61E088810E94EF04898140
:1003E0000E9425059927002E01C0880F0A94EAF77C
:1003F000F82A81E090E00E94470460E088810E9432
:10040000EF040150110938F78F2DDF91CF911F9123
:100410000F91FF9008950F931F93CF93DF931F9237
:10042000CDB7DEB78C01262F61E0FC0181812983E5
:100430000E94B604298141E0F801608181810F901A
:10044000DF91CF911F910F910C944E050F931F9345
:10045000CF93DF93EC018985882309F44DC084EEA6
:100460008093BC008091BC0087FFFCCF80ED80931F
:10047000BB0084EC8093BC008091BC0087FFFCCF64
:100480001092BB0084EC8093BC008091BC0087FF7D
:10049000FCCF84EE8093BC008091BC0087FFFCCF32
:1004A00081ED8093BB0084EC8093BC008091BC0004
:1004B00087FFFCCF80E090E034EC3093BC002091CB
:1004C000BC0027FFFCCF2091BB00FE01E80FF91F05
:1004D000228301968730910581F784E88093BC00E0
:1004E0008091BC0087FFFCCF84E98093BC00DF9142
:1004F000CF911F910F91089560EDCE010E944601AA
:10050000CE010E94C80160E0CE010E940B02CE0124
:100510000E94C80161EDCE010E944601CE010E94F9
:10052000C80100E010E0CE010E94DE01FE01E00FF4
:10053000F11F8283CE010630110519F00E94AB0134
:1005400002C00E948E010F5F1F4F0730110559F73F
:10055000CE01DF91CF911F910F910C947501962FD1
:100560009695969596959E70292F220F220F290F0A
:10057000862F8F70820F0895962F9F7067FF09C096
:1005800065FB662760F9892F2CE0629F800D11249E
:1005900008956073669566956695862F880F880F17
:1005A000860F890F08950F931F93CF93DF93CDB7D5
:1005B000DEB760970FB6F894DEBF0FBECDBF8C01DB
:1005C000CE0109960E943401C8010E942602F8015A
:1005D0006281C8010E94AF028B87F8016381C80164
:1005E0000E94AF028A87F8016481C8010E94BC02A0
:1005F0008987F8018581888B6681C8010E94AF02D6
:100600008C87F8016781C8010E94AF028D87F801CD
:100610008085982F92959F708F70FAE09F9F800D34
:10062000112490E08053984F9F878E8788E0FE01C9
:100630003996DE01119601900D928A95E1F7298194
:100640003A814B815C816D817E818F819885609636
:100650000FB6F894DEBF0FBECDBFDF91CF911F91D3
:100660000F910895FF920F931F93CF93DF93CDB710
:10067000DEB728970FB6F894DEBF0FBECDBF8C0152
:10068000F62ECE0101960E943401C8010E94D302C9
:100690003A834B832A3010F480E305C0822F6AE04E
:1006A0000E946E09805D80930E013AE0822F632FD5
:1006B0000E946E09905D90930F018AE38093100170
:1006C0002A812A3010F480E305C0822F632F0E9414
:1006D0006E09805D809311013AE0822F632F0E94A2
:1006E0006E09905D909312018AE38093130181E07B
:1006F000F81203C01092130115C02B812A3010F498
:1007000080E305C0822F632F0E946E09805D809375
:100710001401822F6AE00E946E09905D909315018A
:10072000109216018EE091E028960FB6F894DEBF85
:100730000FBECDBFDF91CF911F910F91FF90089514
:100740001F920F920FB60F9211242F933F938F9306
:100750009F93AF93BF938091430190914401A091E7
:100760004501B09146013091420123E0230F2D371E
:1007700020F40196A11DB11D05C026E8230F0296A5
:10078000A11DB11D20934201809343019093440128
:10079000A0934501B0934601809147019091480193
:1007A000A0914901B0914A010196A11DB11D80930C
:1007B000470190934801A0934901B0934A01BF912A
:1007C000AF919F918F913F912F910F900FBE0F90FE
:1007D0001F9018953FB7F894809147019091480178
:1007E000A0914901B0914A0126B5A89B05C02F3FB1
:1007F00019F00196A11DB11D3FBF6627782F892FE3
:100800009A2F620F711D811D911D42E0660F771FA7
:10081000881F991F4A95D1F708958F929F92AF92A2
:10082000BF92CF92DF92EF92FF926B017C010E9408
:10083000EA034B015C01C114D104E104F104F1F0BD
:100840000E946D090E94EA03681979098A099B09C7
:10085000683E73408105910570F321E0C21AD1080A
:10086000E108F10888EE880E83E0981EA11CB11CF7
:10087000C114D104E104F10429F7DDCFFF90EF901A
:10088000DF90CF90BF90AF909F908F90089582306F
:10089000910538F0880F991F880F991F05970197C8
:1008A000F1F70895789484B5826084BD84B5816041
:1008B00084BD85B5826085BD85B5816085BDEEE668
:1008C000F0E0808181608083E1E8F0E01082808147
:1008D00082608083808181608083E0E8F0E08081B5
:1008E00081608083E1EBF0E0808184608083E0EBD5
:1008F000F0E0808181608083EAE7F0E080818460BD
:100900008083808182608083808181608083808118
:10091000806880831092C1000895833081F028F4AC
:10092000813099F08230A1F008958730A9F08830A5
:10093000B9F08430D1F4809180008F7D03C0809124
:1009400080008F7780938000089584B58F7702C0F0
:1009500084B58F7D84BD08958091B0008F7703C0EA
:100960008091B0008F7D8093B0000895CF93DF9386
:1009700090E0FC01E458FF4F2491FC01E057FF4F49
:100980008491882349F190E0880F991FFC01E85475
:10099000FF4FA591B49182559F4FFC01C591D49111
:1009A0009FB7611108C0F8948C91209582238C9395
:1009B000888182230AC0623051F4F8948C91322FDE
:1009C000309583238C938881822B888304C0F8948C
:1009D0008C91822B8C939FBFDF91CF9108950F93C1
:1009E0001F93CF93DF931F92CDB7DEB7282F30E050
:1009F000F901E859FF4F8491F901E458FF4F149130
:100A0000F901E057FF4F04910023C9F0882321F03A
:100A100069830E948D046981E02FF0E0EE0FFF1FD3
:100A2000E255FF4FA591B4919FB7F8948C91611155
:100A300003C01095812301C0812B8C939FBF0F9021
:100A4000DF91CF911F910F910895CF93DF93282FBE
:100A500030E0F901E859FF4F8491F901E458FF4F64
:100A6000D491F901E057FF4FC491CC2391F081114B
:100A70000E948D04EC2FF0E0EE0FFF1FEC55FF4FAE
:100A8000A591B4912C912D2381E090E021F480E098
:100A900002C080E090E0DF91CF910895BF92CF92A5
:100AA000DF92EF92FF920F931F93CF93DF93C82EA5
:100AB000D62EB42EC7E0D0E0022F10E087E0E82E5B
:100AC000F12CB1100AC0F701EC1BFD0BB80102C0FC
:100AD00075956795EA95E2F707C0B8010C2E02C03C
:100AE000759567950A94E2F7617077278C2D0E94BF
:100AF000EF0461E08D2D0E94EF0460E08D2D0E94D7
:100B0000EF042197F0F6DF91CF911F910F91FF90A5
:100B1000EF90DF90CF90BF900895FC01818D228DE2
:100B200090E0805C9F4F821B91098F7399270895F5
:100B3000FC01918D828D981731F0828DE80FF11DA7
:100B4000858D90E008958FEF9FEF0895FC01918DC2
:100B5000828D981761F0828DDF01A80FB11D5D961F
:100B60008C91928D9F5F9F73928F90E008958FEF8D
:100B70009FEF08958AE297E0892B49F080E090E0AA
:100B8000892B29F00E942A0781110C9400000895F6
:100B9000FC01848DDF01A80FB11DA35ABF4F2C911A
:100BA000848D90E001968F739927848FA689B789E9
:100BB0002C93A089B1898C9180648C93938D848DC2
:100BC000981306C00288F389E02D80818F7D808391
:100BD0000895CF93DF93EC01888D8823C9F0EA89CB
:100BE000FB89808185FD05C0A889B9898C9186FD26
:100BF0000FC00FB607FCF5CF808185FFF2CFA88923
:100C0000B9898C9185FFEDCFCE010E94C805E7CF51
:100C1000DF91CF910895CF92DF92FF920F931F93B0
:100C2000CF93DF931F92CDB7DEB76C0181E0D60181
:100C300058968C9358975B969C915B975C968C9199
:100C40005C97981307C05096ED91FC915197808165
:100C500085FD2EC0F601038D10E00F5F1F4F0F734F
:100C60001127F02EF601848DF81211C00FB607FC83
:100C7000F9CFD6015096ED91FC915197808185FF77
:100C8000F1CFC60169830E94C8056981EBCF838DCE
:100C9000E80FF11DE35AFF4F6083D6015B960C937A
:100CA0005B975296ED91FC915397808180620CC0C6
:100CB000D6015696ED91FC91579760835096ED9131
:100CC000FC91519780818064808381E090E00F9057
:100CD000DF91CF911F910F91FF90DF90CF900895FA
:100CE000BF92CF92DF92EF92FF92CF93DF93EC010E
:100CF0006A017B01B22EE889F98982E0808341157F
:100D000081EE580761057105A1F060E079E08DE39F
:100D100090E0A70196010E947A092150310941090A
:100D200051095695479537952795211580E1380744
:100D300098F0E889F989108260E874E88EE190E023
:100D4000A70196010E947A092150310941095109F0
:100D50005695479537952795EC85FD853083EE852B
:100D6000FF852083188EEC89FD89B082EA89FB8992
:100D7000808180618083EA89FB89808188608083AB
:100D8000EA89FB89808180688083EA89FB89808188
:100D90008F7D8083DF91CF91FF90EF90DF90CF9098
:100DA000BF9008951F920F920FB60F9211242F93A8
:100DB0008F939F93EF93FF93E0915B01F0915C0120
:100DC0008081E0916101F091620182FD12C0908109
:100DD000809164018F5F8F7320916501821751F0BC
:100DE000E0916401F0E0E55BFE4F958F8093640134
:100DF00001C08081FF91EF919F918F912F910F9072
:100E00000FBE0F901F9018951F920F920FB60F9262
:100E100011242F933F934F935F936F937F938F93FF
:100E20009F93AF93BF93EF93FF938BE491E00E9466
:100E3000C805FF91EF91BF91AF919F918F917F91E5
:100E40006F915F914F913F912F910F900FBE0F9037
:100E50001F9018958BE491E00E948D0521E0892B6D
:100E600009F420E0822F089510924E0110924D0156
:100E700088EE93E0A0E0B0E080934F0190935001A2
:100E8000A0935101B09352018BE191E090934C01FA
:100E900080934B0185EC90E090935801809357012B
:100EA00084EC90E090935A018093590180EC90E09B
:100EB00090935C0180935B0181EC90E090935E01E4
:100EC00080935D0182EC90E09093600180935F01DC
:100ED00086EC90E09093620180936101109264012E
:100EE0001092650110926601109267010895CF92E9
:100EF000DF92EF92FF920F931F93CF93DF937C01CA
:100F00006A01EB0100E010E00C151D0571F069911C
:100F1000D701ED91FC910190F081E02DC701099579
:100F2000892B19F00F5F1F4FEFCFC801DF91CF91D1
:100F30001F910F91FF90EF90DF90CF900895611572
:100F4000710581F0DB010D900020E9F7AD01415002
:100F50005109461B570BDC01ED91FC910280F38196
:100F6000E02D099480E090E00895DC01ED91FC9182
:100F70000190F081E02D099467E271E00C949F07E5
:100F80008F929F92AF92BF92DF92EF92FF920F9358
:100F90001F93CF93DF93CDB7DEB7A1970FB6F89429
:100FA000DEBF0FBECDBF7C01F42FD52ECB0119A221
:100FB000223008F42AE08E010F5D1F4F822E912C03
:100FC000A12CB12C6F2F7D2DA50194010E947A09CF
:100FD000F22FD32ECA01015011096A3014F4E0E354
:100FE00001C0E7E3E60FD801EC93232B242B252B3C
:100FF00049F7B801C7010E949F07A1960FB6F89460
:10100000DEBF0FBECDBFDF91CF911F910F91FF903B
:10101000EF90DF90BF90AF909F908F900895CF9208
:10102000DF92EF92FF920F931F93CF93DF93EC0128
:101030006A017B012115310579F4E881F98101907C
:10104000F081E02D642FDF91CF911F910F91FF90E0
:10105000EF90DF90CF9009942A303105E9F477FFC3
:101060001AC06DE20E94B5078C0144275527BA01CA
:101070004C195D096E097F092AE0CE010E94C00764
:10108000800F911FDF91CF911F910F91FF90EF90F3
:10109000DF90CF9008952AE0B701A601CE01DF913D
:1010A000CF911F910F91FF90EF90DF90CF900C9414
:1010B000C0070F931F93CF93DF93EC019A01AB010D
:1010C000662757FD6095762F0E940F088C01CE0190
:1010D0000E94BC07800F911FDF91CF911F910F914C
:1010E0000895FC01808191810C943A0ACF93DF939B
:1010F000EC0188819981009711F00E943A0A1982C7
:1011000018821D821C821B821A82DF91CF91089562
:101110000F931F93CF93DF93EC018B016F5F7F4F92
:10112000888199810E94C90A009731F09983888348
:101130001B830A8381E001C080E0DF91CF911F9182
:101140000F910895CF93DF93EC0188819981892BCA
:1011500029F08A819B818617970760F4CE010E944F
:101160008808882341F08C819D81892B19F4E881BE
:10117000F981108281E0DF91CF910895EF92FF9283
:101180000F931F93CF93DF93EC017B018A01BA0188
:101190000E94A208811104C0CE010E94760807C0F7
:1011A0001D830C83B701888199810E94C30BCE01F6
:1011B000DF91CF911F910F91FF90EF900895FC0167
:1011C00011821082138212821582148261157105B8
:1011D00059F0FB0101900020E9F7AF01415051099E
:1011E000461B570B0C94BE080895CF93DF93EC0178
:1011F0006115710561F0FB0101900020E9F7AF0175
:1012000041505109461B570B0E94BE0802C00E9464
:101210007608CE01DF91CF910895BF92CF92DF92F1
:10122000EF92FF920F931F93CF93DF936C017B019B
:10123000EA0189012417350720F48D2FE901042FD5
:10124000182F69E271E0C6010E94DF08D7011496E9
:101250008D919C911597C817D907C8F480179107ED
:1012600008F48C01D701ED91FC911197E00FF11F6B
:10127000B08010826D917C916C0F7D1FC6010E9421
:10128000F508D701ED91FC91E00FF11FB082C60186
:10129000DF91CF911F910F91FF90EF90DF90CF9052
:1012A000BF900895FC0180819181009711F00C940A
:1012B000930B60E070E0CB01089508950E94520402
:1012C0000E945D090E948D00CAEBD5E00E94B80023
:1012D0002097E1F30E94BA05F9CF0895991B79E0B0
:1012E00004C0991F961708F0961B881F7A95C9F7B6
:1012F00080950895A1E21A2EAA1BBB1BFD010DC00B
:10130000AA1FBB1FEE1FFF1FA217B307E407F507B5
:1013100020F0A21BB30BE40BF50B661F771F881F91
:10132000991F1A9469F760957095809590959B0127
:10133000AC01BD01CF010895EE0FFF1F0590F491A0
:10134000E02D0994CF93DF938230910510F482E071
:1013500090E0E091EA01F091EB0120E030E0A0E0C4
:10136000B0E0309739F14081518148175907B8F002
:101370004817590771F482819381109729F01396C9
:101380009C938E9312972CC09093EB018093EA016B
:1013900027C02115310531F04217530718F0A90174
:1013A000DB0101C0EF019A01BD01DF010280F38181
:1013B000E02DD7CF21153105F9F0281B390B24304A
:1013C000310580F48A819B816115710521F0FB0153
:1013D0009383828304C09093EB018093EA01FE0122
:1013E000329644C0FE01E20FF31F81939193225085
:1013F0003109398328833AC02091E8013091E9010D
:10140000232B41F420910201309103013093E90133
:101410002093E8012091000130910101211531054F
:1014200041F42DB73EB74091040150910501241BB2
:10143000350BE091E801F091E901E217F307A0F420
:101440002E1B3F0B2817390778F0AC014E5F5F4F1A
:101450002417350748F04E0F5F1F5093E901409362
:10146000E8018193919302C0E0E0F0E0CF01DF91C9
:10147000CF910895CF93DF93009709F487C0FC01C3
:10148000329713821282C091EA01D091EB0120972A
:1014900081F420813181280F391F8091E8019091DA
:1014A000E9018217930779F5F093E901E093E801E8
:1014B0006DC0DE0120E030E0AE17BF0750F4129699
:1014C0004D915C9113979D014115510509F1DA0188
:1014D000F3CFB383A28340815181840F951F8A1774
:1014E0009B0771F48D919C911197840F951F029623
:1014F0009183808312968D919C911397938382831D
:101500002115310529F4F093EB01E093EA013EC087
:10151000D9011396FC93EE9312974D915D91A40F10
:10152000B51FEA17FB0779F480819181840F951F1D
:101530000296D90111969C938E9382819381139682
:101540009C938E931297E0E0F0E08A819B81009754
:1015500019F0FE01EC01F9CFCE0102962881398104
:10156000820F931F2091E8013091E9012817390774
:1015700069F4309729F41092EB011092EA0102C04D
:1015800013821282D093E901C093E801DF91CF91D9
:101590000895A0E0B0E0EFECFAE00C94E30BEC016E
:1015A000CB01209719F40E94A209B8C0FE01E60FF2
:1015B000F71F9E0122503109E217F30708F4ACC06F
:1015C000D9010D911C91119706171707B8F0053036
:1015D000110508F49FC0A801445051094617570748
:1015E00008F498C002501109061B170B01931193C0
:1015F0006D937C93CF010E943A0A8CC05B01A01AC4
:10160000B10A4E01800E911EA091EA01B091EB014A
:10161000612C712C60E070E0109709F449C0A815A6
:10162000B905C9F5ED90FC901197670142E0C40E31
:10163000D11CCA14DB0478F147018A189B086401A5
:1016400042E0C40ED11C1296BC9012971396AC9136
:10165000B5E0CB16D10440F0B282A38391828082A0
:10166000D9018D939C9309C00E5F1F4F0E0D1F1D56
:10167000F90111830083EB2DFA2F6115710531F00B
:10168000DB011396FC93EE93129744C0F093EB01A9
:10169000E093EA013FC06D917C9111976616770641
:1016A00008F43B01BD0112960D90BC91A02DB4CF62
:1016B0006091E8017091E90168157905E9F468160F
:1016C0007906D0F440910001509101014115510576
:1016D00041F44DB75EB76091040170910501461B5E
:1016E000570BE417F507C0F4F093E901E093E80124
:1016F000F901918380830EC00E94A2097C010097AA
:1017000059F0A801BE010E94BA0BCE010E943A0A0C
:10171000C70104C0CE0102C080E090E0CDB7DEB7C3
:10172000EEE00C94FF0B1F93FC0199278827BC0166
:10173000E89411911032E9F3193010F01E30C8F31B
:101740001B3251F01D3249F4689406C00E94CA0B46
:10175000610F711D811D911D119110531A30B0F34D
:101760003EF490958095709561957F4F8F4F9F4F78
:101770001F910895FB01DC0102C001900D924150C0
:101780005040D8F70895FB01DC0101900D92002034
:10179000E1F70895592F482F372F262F660F771F0F
:1017A000881F991F660F771F881F991F620F731F6D
:1017B000841F951F660F771F881F991F08952F920A
:1017C0003F924F925F926F927F928F929F92AF92D1
:1017D000BF92CF92DF92EF92FF920F931F93CF931E
:1017E000DF93CDB7DEB7CA1BDB0B0FB6F894DEBFB5
:1017F0000FBECDBF09942A88398848885F846E84DB
:101800007D848C849B84AA84B984C884DF80EE8024
:10181000FD800C811B81AA81B981CE0FD11D0FB62D
:10182000F894DEBF0FBECDBFED010895F894FFCF51
:101830000000EC0180000E000D000C000B00787819
:1018400078787878787800000000000B0677078DAC
:1018500005A6059805E9050D0A006E616E00696E22
:0818600066006F7666002E00A1
:00000001FF
